P100000000000191ISENTO        ISENTO        t2ti.COM                                    
P2000000000001913011010827133 01 PRODUTO TRIBUTADO A 7%                         ??????ATT0007000000000010
P2000000000001910312011604499 02 PRODUTO TRIBUTADO A 7%                         ??????ATT0007000000000035
P2000000000001912509021501148 PRODUTO NAO TRIBUTADO                             ??????ATN0000000000000558
P2000000000001911234567894568 PRODUTO PARA DAV POR 350                          ??????ATT0017000000000350
P2000000000001915488654654665 PRODUTO PARA PRE VENDA POR 90                     ??????ATT0017000000000090
P2000000000001918797897998555 PRODUTO PARA TESTE VALOR 200                      ??????ATT0017000000000200
P2000000000001915555554444564 PRODUTO PARA TESTE VALOR 150                      ??????ATT0017000000000150
P2000000000001916465487987999 PRODUTO PARA TESTE VALOR 30                       ??????ATT0017000000000030
P2000000000001918521479787998 PRODUTO PARA TESTE VALOR 500                      ??????ATT0017000000000500
P2000000000001918798546521325 PRODUTO PARA TESTE VALOR 50                       ??????ATT0017000000000050
P2000000000001912581473698888 PRODUTO PARA TESTE VALOR 20                       ??????ATT0017000000000020
P2000000000001919876465431323 PRODUTO PARA TESTE VALOR 140                      ??????ATT0017000000000140
P2000000000001912548798532156 PRODUTO DE PRODUCAO PROPRIA                       ??????APT0017000000000010
P2000000000001910001170000005 01 SERVICO TRIBUTADO A 5%                         ??????ATS0000000000001200
P2000000000001910001180000002 SERVICO TRIBUTADO A 3%                            ??????ATS0000000000000558
P2000000000001912608021532487 02 PRODUTO TIBUTADO A 12%                         ??????ATT0012000000000030
P2000000000001912106021651318 02 SERVICO TRIBUTADO A 5%                         ??????ATS0000000000000700
P2000000000001910000000000023 TESTE ALBERT                                      ??????TTT0017000000000025
P2000000000001910001190000009 01 PRODUTO TIBUTADO A 12%                         ??????ATT0012000000000120
P2000000000001910001234567898 PRODUTO TRIBUTADO A 17%                           ??????ATT0017000000000006
P2000000000001910407011150500 PRODUTO TRIBUTADO A 25%                           ??????ATT0025000000000030
P2000000000001911603041234428 PRODUTO ISENTO                                    ??????ATI0000000000000120
P2000000000001910507021132142 PRODUTO SUBSTITUICAO TRIBUTARI                    ??????ATF0000000000000030
P900000000000191ISENTO        000023
EAD76277339444391298d9b38acfb6a8aa7e9d44984240d03559f2946a34ff1a9f6a87b9697d361519fbbd12aeafdd1ffc81c31d4b31ac089c7a0aeaff31e7286f1bfe924a1c90143b4230d4f19e455f923399eba36529b2e0ab6e222a275dbcf95d1d20285325dc0858ad290561aa539b8b3a19d9b618c63ca487455b5380c1b63
